:020000040800F2
:100000005834002031020008390200083B02000881
:100010003D0200083F020008410200080000000005
:10002000000000000000000000000000990100082E
:100030004502000800000000DD010008850E0008F0
:100040004B0200084B0200084B0200084B0200085C
:100050004B0200084B0200084B0200084B0200084C
:100060004B0200084B0200084B0200084B0200083C
:100070004B0200084B0200084B0200084B0200082C
:100080004B0200084B0200084B0200084B0200081C
:100090004B0200084B0200084B0200084B0200080C
:1000A0004B0200084B0200084B0200084B020008FC
:1000B0004B0200084B0200084B0200084B020008EC
:1000C0004B0200084B0200084B0200084B020008DC
:1000D0004B02000881120008D512000831130008F5
:1000E0004B0200084B0200084B02000800F002F827
:1000F00000F03FF80AA090E8000C82448344AAF183
:100100000107DA4501D100F034F8AFF2090EBAE880
:100110000F0013F0010F18BFFB1A43F0010318473B
:10012000E02F000000300000103A24BF78C878C1EA
:10013000FAD8520724BF30C830C144BF04680C60ED
:10014000704700000023002400250026103A28BF35
:1001500078C1FBD8520728BF30C148BF0B60704739
:10016000642900F0CD80002070471FB51FBD10B579
:1001700010BD00F042FA114603B401F09AF903BC35
:10018000FFF7F3FF01F0C4F900F05CFA03B4FFF7E6
:10019000EEFF03BC00F064FA224B19680868B0E86F
:1001A000F00F80F30988BFF36F8F4FF0000080F3EA
:1001B00011884EF00D0E70470000000006480068E0
:1001C000006880F3088862B661B6BFF34F8FBFF353
:1001D0006F8F00DF00BF00BF08ED00E0EFF3098084
:1001E000BFF36F8F0F4B1A6820E9F00F106008B54E
:1001F0004FF0100080F31188BFF34F8FBFF36F8F64
:1002000002F008F94FF0000080F31188BDE80840C3
:1002100019680868B0E8F00F80F30988BFF36F8FA2
:10022000704700BF50000020EFF3058070470000CA
:100230000948804709480047FEE7FEE7FEE7FEE77A
:10024000FEE7FEE7FEE7FEE7FEE7FEE704480549B6
:10025000054A064B70470000410F0008ED000008FA
:10026000582E0020583400205830002058300020EC
:100270000FB41CB5074B06AA7B446946009005984D
:1002800000F071F90020694600F080F91CBC5DF8AF
:1002900014FB0000110300002DE9F0410E46044656
:1002A000002020622046E168884730B3252805D029
:1002B000D4E901219047206A401CF2E7E16820461A
:1002C00000278847050018D0A5F14100192802D859
:1002D00020354FF400673246294620462760FFF755
:1002E0003FFF40B1012804D0F61D26F0070608366E
:1002F000D8E7361DD6E72846DAE7206ABDE8F08160
:100300002DE9F0410646002410687529314616A5EE
:1003100010D0AFF30080002802DA404213A507E0B6
:1003200031688A0701D512A502E0490704D511A555
:10033000012401E0AFF3008000210A2206F1240726
:1003400009E0B0FBF2FCB0FBF2F302FB1C00303022
:1003500078541846491C0028F3D123462A463046D3
:10036000BDE8F04100F0A1B8000000002D00000041
:100370002B00000020000000032A40F2308010F023
:10038000030C00F0158011F8013BBCF1020F624430
:1003900098BF11F801CB00F8013B38BF11F8013BC1
:1003A000A2F1040298BF00F801CB38BF00F8013B6E
:1003B00011F0030300F0EF80083AC0F0088051F814
:1003C000043B083A51F804CBA0E80810F5E7121DE9
:1003D0005CBF51F8043B40F8043BAFF30080D20708
:1003E00024BF11F8013B11F801CB48BF11F8012BD4
:1003F00024BF00F8013B00F801CB48BF00F8012BF7
:10040000704702F0FF0343EA032242EA024200F08F
:1004100002B84FF000020429C0F0128010F0030C63
:1004200000F01B80CCF1040CBCF1020F18BF00F8E7
:10043000012BA8BF20F8022BA1EB0C0100F00DB896
:100440005FEAC17C24BF00F8012B00F8012B48BFF4
:1004500000F8012B70474FF0000200B51346944698
:100460009646203922BFA0E80C50A0E80C50B1F10C
:100470002001BFF4F7AF090728BFA0E80C5048BF20
:100480000CC05DF804EB890028BF40F8042B08BFBE
:10049000704748BF20F8022B11F0804F18BF00F8BA
:1004A000012B70477047704770472DE9F0470D46A4
:1004B00099469246044600F124080168880604D54E
:1004C000E06921F01001216000E00120A84201DD77
:1004D000471B00E00027A1697A1902EB0900081AFE
:1004E000A0612078C00602D42046AFF30080002629
:1004F00008E0D4E901211AF806009047206A401C60
:10050000761C20624E45F4DB2078C0060AD52046D2
:10051000AFF3008006E0D4E9012130209047206A43
:10052000401C2062381EA7F10107F4DC07E0D4E983
:10053000012118F805009047206A401C2062281EFF
:10054000A5F10105F3DC2046AFF30080207800061A
:1005500002D50220BDE8F0870120FBE701694A1CB3
:1005600002610878704700B58FB0CDE901310021F4
:10057000059105497944CDE9031011466846FFF716
:100580008BFE0FB000BD0000E5FFFFFF0A6802F818
:10059000010B0A60704710B5203AC0F00B80B1E83B
:1005A0001850203AA0E81850B1E81850A0E81850A8
:1005B000BFF4F5AF5FEA027C24BFB1E81850A0E8B1
:1005C000185044BF18C918C0BDE810405FEA827CCB
:1005D00024BF51F8043B40F8043B08BF7047D207E2
:1005E00028BF31F8023B48BF11F8012B28BF20F883
:1005F000023B48BF00F8012B7047754600F02CF80D
:10060000AE4605006946534620F00700854618B0FF
:1006100020B5FFF71BFEBDE820404FF000064FF06D
:1006200000074FF000084FF0000B21F00701AC4627
:10063000ACE8C009ACE8C009ACE8C009ACE8C00946
:100640008D46704710B50446AFF300802046BDE8E4
:100650001040FFF79BBD000000487047F82D0020B8
:1006600001491820ABBEFEE726000200704721B109
:10067000426842F48062426003E0426822F4806291
:100680004260704721B1826842F00102826003E05B
:10069000826822F00102826070470A460021816868
:1006A00021F4E041114381607047014600208A68CF
:1006B00002F004020AB1012000E00020704708B5F2
:1006C000024600200090009201F12800009B18448F
:1006D00000900098006880B208BD014600208A683A
:1006E00002F008020AB1012000E00020704700007B
:1006F00030B502460020002350680F4C20400D7991
:100700000C6844EA05242043506090680B4C20405C
:10071000D1E902542C434D7944EA450420439060CA
:10072000D06A20F470000C7C641EE4B2234340EADB
:100730000350D06230BD0000FFFEF0FFFDF7F1FF77
:1007400000B587B04FF4004000F0CCFA012140F230
:10075000052000F0E3FA0320ADF8180000208DF822
:100760001B0003208DF81A0006A9264800F0A4F902
:1007700001208DF80900002004904FF460200390C0
:100780000020019002208DF8140001208DF808004F
:1007900001A91D48FFF7ACFF02211B4800F077F8C4
:1007A00001231A460021184800F030F801230222E4
:1007B0001946154800F02AF84FF4E0411248FFF7B7
:1007C0006CFF01211048FFF75DFF0F4800F06BF848
:1007D00000BF0D48FFF781FF0028FAD10A4800F05A
:1007E00072F800BF0848FFF760FF0028FAD1012126
:1007F0000548FFF73CFF0121034800F059F807B016
:1008000000BD00000008014000240140F0B504468E
:100810001546002000220026092911DDE068A1F11B
:100820000A0707EB470C072707FA0CF29043A1F1E0
:100830000A0707EB470703FA07F21043E0600CE0F2
:10084000206901EB410C072707FA0CF2904301EBFA
:10085000410703FA07F210432061A06BC0F3015671
:10086000EF1C06F1010CA7EB0C0707EB870C1F2709
:1008700007FA0CF29043EF1C06F1010CA7EB0C07F2
:1008800007EB870701FA07F21043A063F0BD10B52C
:100890000A4600210023816B21F44011531E41EAD6
:1008A0000351816310BD816841F008018160704788
:1008B00021B1826842F40212826003E0826822F46D
:1008C000021282607047816841F0040181607047C4
:1008D000034800780349097840EA01207047000086
:1008E0000D0000200C00002003480078034909781F
:1008F00040EA0120704700000F0000200E00002099
:1009000008B50121042000F009FA4020ADF80000EC
:1009100003208DF8020048208DF803006946024844
:1009200000F0CAF808BD00000008014008B5012128
:10093000042000F0F3F94020ADF8000003208DF80A
:10094000020010208DF803006946024800F0B4F858
:1009500008BD00000008014070B50024FFF7D0FF7B
:10096000002526E0012600BF4021144800F02FF9A1
:1009700020B9301E06F10101CEB2F5D11E2000F0E3
:10098000A7FD6006040E40210C4800F020F9012864
:1009900001D144F00104012600BF4021074800F0C6
:1009A00016F920B1301E06F10101CEB2F5D1681C56
:1009B000C5B2082DD6DB204670BD000000080140FE
:1009C0002DE9F0474FF00109FFF7B0FF40212A4819
:1009D00000F006F9142000F06DFD4021264800F0DB
:1009E00001F91E2000F074FDFFF78AFF4021224824
:1009F00000F0EDF800283DD100BF00BF40211E48A7
:100A000000F0E5F830B9B9F1000009F101011FFA71
:100A100081F9F3D14FF0010900BF4021164800F0E1
:100A2000D6F830B1B9F1000009F101011FFA81F9DE
:100A3000F3D1FFF791FF0646FFF78EFF0746FFF75A
:100A40008BFF0446FFF788FF0546FFF785FF8046CA
:100A500060193044C11941450AD108490E7008494E
:100A60000F7008490C7008490D700120BDE8F0872F
:100A70000020FBE70020F9E7000801400C000020FF
:100A80000D0000200E0000200F00002010B5FFF721
:100A90004DFF00200449087004490870044908709B
:100AA0000449087010BD00000C0000200D0000205B
:100AB0000E0000200F0000202DE9F0410246002525
:100AC0000026002000230024002791F803C00CF02A
:100AD0000F0591F803C00CF0100CBCF1000F03D00F
:100AE00091F802C04CEA050591F800C0BCF1000F76
:100AF00031D0146800202BE04FF0010C0CFA00F309
:100B0000B1F800C00CEA03069E4220D183004FF0EA
:100B10000F0C0CFA03F7BC4305FA03FC4CEA04047F
:100B200091F803C0BCF1280F06D14FF0010C0CFA6C
:100B300000FCC2F814C00AE091F803C0BCF1480FF1
:100B400005D14FF0010C0CFA00FCC2F810C0401C9B
:100B50000828D1D31460B1F800C0BCF1FF0F34DD18
:100B6000546800202EE000F1080C4FF0010808FA4C
:100B70000CF3B1F800C00CEA03069E4221D18300B9
:100B80004FF00F0C0CFA03F7BC4305FA03FC4CEAD8
:100B9000040491F803C0BCF1280F05D100F1080C42
:100BA00008FA0CF8C2F8148091F803C0BCF1480FA1
:100BB00007D100F1080C4FF0010808FA0CF8C2F850
:100BC0001080401C0828CED35460BDE8F081024656
:100BD000002093680B400BB1012000E0002070471B
:100BE00041617047016170470AB1016100E04161F4
:100BF0007047000010B504461848806940F00400B2
:100C0000164988611648006840F4966014490860E7
:100C10001248806940F4804010498861114800689A
:100C2000B0FBF4F001090F480068B0FBF4F061F389
:100C30001F100D490880081D008840F02C00091D78
:100C40000880252000F09EFB0748001D008840F426
:100C500000500549091D088010BD00000010024029
:100C6000040801401C0000200838014010B504466B
:100C70001848806940F004001649886116480068E9
:100C800040F49640144908601248C06940F40030AE
:100C90001049C861600011490968B1FBF0F0010911
:100CA0000E480068B0FBF4F061F31F100C49088097
:100CB000081D008840F02C00091D0880262000F047
:100CC00061FB0748001D008840F400500449091DDD
:100CD000088010BD00100240000801401C000020E8
:100CE0000844004001460020034A506820F4404078
:100CF00008435060704700000010024029B1064AC6
:100D0000D2690243044BDA6104E0034AD2698243A8
:100D1000014BDA61704700000010024029B1064A19
:100D200092690243044B9A6104E0034A9269824348
:100D3000014B9A61704700000010024008B5012184
:100D40000820FFF7EBFF0320ADF8000010208DF81E
:100D5000030003208DF8020069460448FFF7ACFE4B
:100D6000012211460148FFF73FFF08BD000C01407A
:100D700010B500F0E5F800F091F800F015FB4FF425
:100D80001650FFF737FF4FF41650FFF76FFFFFF7CE
:100D90007DFEFFF7D5FCFFF7D1FF10BD10B500F0C9
:100DA00001F810BD0CB50020019000903348006898
:100DB00040F480303149086000BF3048006800F4DA
:100DC000003000900198401C0190009818B90198DB
:100DD000B0F5A06FF1D12948006800F4003010B1DF
:100DE0000120009001E0002000900098012843D1EC
:100DF0002348006840F01000214908600846006858
:100E000020F0070008600846006840F00200086013
:100E10001A484068194948600846406848600846D2
:100E2000406840F4806048600846406820F47C10C8
:100E300048600846406840F4E8104860084600688A
:100E400040F08070086000BF0C48006800F000703F
:100E50000028F9D00948406820F00300074948609D
:100E60000846406840F00200486000BF0348406800
:100E700000F00C000828F9D10CBD00000010024061
:100E80000020024010B54FF0E020006901F044FE60
:100E9000012801D001F030FB10BD000010B5002189
:100EA00000200022214B5B6803F00C0121B10429D2
:100EB00006D0082928D107E01D4B1E4C236027E0EF
:100EC0001B4B1C4C236023E0184B5B6803F4701031
:100ED000164B5B6803F48032022303EB904022B987
:100EE000154B4343134C23600DE0104B5B6803F438
:100EF000003323B1104B43430E4C236003E00C4BF3
:100F000043430C4C236003E0094B0A4C236000BFB1
:100F100000BF064B5B68C3F30313084CE15C054B51
:100F20001B68CB40034C236010BD00000010024042
:100F300000127A001C00002000093D002000002063
:100F400010B51348006840F00100114908600846D8
:100F50004068104908400E494860084600680E493C
:100F600008400B4908600846006820F480200860AB
:100F70000846406820F4FE0048604FF41F00886077
:100F8000FFF70CFF4FF000600449086010BD00003F
:100F9000001002400000FFF8FFFFF6FE08ED00E041
:100FA00021B1028842F00102028004E002884FF67B
:100FB000FE731A4002807047002202881D4B98423F
:100FC0000ED01D4B98420BD0B0F1804F08D01B4B78
:100FD000984205D01A4B984202D01A4B984204D13D
:100FE0004FF68F731A404B881A43174B984207D01D
:100FF000164B984204D04FF6FF431A40CB881A4351
:1010000002808B8883850B8803850A4B98420BD01E
:10101000094B984208D00E4B984205D00D4B984290
:1010200002D00D4B984201D10B7A038601238382B3
:1010300070470000002C01400034014000040040D3
:1010400000080040000C0040001000400014004068
:1010500000400140004401400048014022E01248A5
:10106000007801281BD100200F4908700F48007834
:10107000302808D10EA000F0DBF800220121104832
:10108000FFF7B2FD0BE009480078312807D10DA029
:1010900000F0CEF8012211460948FFF7A5FD6420B3
:1010A00001F0A0F8DBE7000016000020B8000020E7
:1010B00052656C6179313A204F46462000000000AD
:1010C000000C014052656C6179313A204F4E20008E
:1010D0001CB5002001906DE0002600240025FFF7DC
:1010E0006FFCFFF701FC0746C01707EB1060000A12
:1010F0008DF80400FFF7ECFB0746C01707EB106004
:10110000000A8DF8050000BF11E018212A48FFF7FA
:10111000D6FA0A2190FBF1F0044414212648FFF787
:10112000CEFA0A2190FBF1F00544701CC6B2322EB3
:10113000EBDB3220B4FBF0F4B5FBF0F5B5F5917FB5
:1011400002D24FF4917504E0B5F5C37F01D94FF495
:10115000C375462C01D2462404E0B4F5AF7F01D913
:101160004FF4AF74002064234FF4C3724FF49171B5
:101170000090284600F008FAC0B28DF80700002061
:1011800064234FF4AF7246210090204600F0FCF932
:10119000C0B28DF806000948006830B100231A4635
:1011A00001A90648006801F07FFA4FF4FA6001F0E7
:1011B00019F800BF90E7000000240140080000205B
:1011C00090B01BE0002202A90D48006801F0F8FA77
:1011D00080B19DF80A009DF80B10CDE900109DF834
:1011E00009309DF8082007A103A8FFF741F803A8DC
:1011F00000F03AF80A2000F0F5FF00BFE2E7000037
:101200000800002025642025642025642025642012
:1012100021000000C1B2054A118000BF0349091F27
:10122000098801F080010029F8D070470438014096
:1012300000B5034603E01878FFF7ECFF5B1C187855
:101240000028F8D100BD0000C0F30801054A118054
:1012500000BF0449091F098801F080010029F8D066
:10126000704700000444004000B5034603E01878CE
:10127000FFF7EAFF5B1C18780028F8D100BD0000DA
:101280001049098801F02001D1B10E49091D0988D2
:10129000C8B20A2809D00C490C4A127888540B4964
:1012A0000978491C094A11700AE00021064A074BD7
:1012B0001B78D1540121064A11700021034A117094
:1012C0007047000000380140A400002015000020F5
:1012D0001400002000B51248008800F02000E8B19A
:1012E0000F48001D0088C3B2212B0CD00D480E49B9
:1012F000097843540C480078401C0B490870184684
:10130000FFF7A2FF0AE000200649074A1278885436
:1013100001200649087000200349087000BD000044
:1013200000440040B80000201700002016000020F4
:101330001049098801F02001D1B10E49091D098821
:10134000C8B20A2809D00C490C4A127888540B49B3
:101350000978491C094A11700AE00021064A074B26
:101360001B78D1540121064A11700021034A1170E3
:101370007047000000480040CC0000201900002009
:101380001800002000280DDB00BF00BF00F01F0286
:10139000012191404209920002F1E022C2F80011BD
:1013A00000BF00BF704700000EB501210220FFF70B
:1013B000A5FC3B20ADF800004CF24F30ADF8040026
:1013C0000020ADF80600ADF8020069460148FFF7BD
:1013D000F3FD0EBD0004004010B5044600F0DFF838
:1013E00038B100F08DF820B14FF0FF31206801F0E6
:1013F00069FA10BD70B50546286800F0C3FE0024E8
:101400000BE0084951F824102868884204D10020D4
:10141000044941F8240002E0641C052CF1D300BF0C
:1014200070BD00006004002070B5044600202060FC
:10143000002514E0154850F8250078B905EB850023
:10144000134A02EB0011012001F081F80F4941F825
:101450002500084650F82500206002E06D1C052D8F
:10146000E8D300BF206830B900F099F818B1012026
:1014700001F05CF82060002080F3118800BF206834
:1014800008B9002070BD0120FCE7000060040020C6
:10149000D002002010B5044600F081F840B100F001
:1014A0002FF828B100231A461946206801F0FCF8ED
:1014B00010BD704770B50446002500BF04E04FF42E
:1014C0007A7000F005F86D1CA542F8D370BD0000DD
:1014D00010B5044601210948FFF762FD00BF074827
:1014E00024300088A042FAD3002004492431088027
:1014F00000210248FFF754FD10BD00000004004029
:1015000000BFEFF3058008B9012070470020FCE719
:101510001CB5002204210A2001F02EF812490860AF
:10152000FFF726FC0020012103464A02CDE9001006
:101530000EA1104801F08EFA0020012103464A0254
:10154000CDE900100CA10E4801F084FA0020012121
:1015500003464A02CDE9001007A10A4801F07AFAD1
:1015600000F002FF00201CBD0800002052656164ED
:1015700000000000D110000853656E6400000000F8
:10158000C11100085D10000870B50446049D601A82
:10159000EE1A7043561A90FBF6F0184470BD10B561
:1015A00001F0BAFA022801D1012010BD0020FCE7A9
:1015B0002DE9F04105460E4620480768204800689E
:1015C000001D00F02BFD681CD8B9D6B11D49486834
:1015D0001B49096888601A4982680968CA60184905
:1015E0000968091D8268516015490968091D8160F3
:1015F000144A134909684A6111460968491C116077
:101600001AE07C190E4800684460BC4207D20C48BE
:101610000168091D0C48006800F03DFD0CE0084819
:101620000168091D0948006800F035FD0848006898
:10163000844201D206480460BDE8F08164000020C5
:10164000500000201C2D00205800002054000020D5
:101650008000002010B5044600F038FD30480068D6
:10166000401C2F4908602F48006840B92D4804608D
:101670000846006801280DD100F0ECF90AE02A487C
:10168000006838B927480068C06AE16A884201D812
:101690002448046025480068401C24490860084626
:1016A000006860642249E06A0968884202D92049DA
:1016B000E06A0860E16A01EB81011E4A02EB8101E8
:1016C0004868A0608268E260211D82685160816084
:1016D000E16A01EB8101174A02EB81026261E16A72
:1016E00001EB8101134A52F82110491CE26A02EB16
:1016F0008202104B43F8221000F0FAFC0A480068FE
:1017000068B108480068C06AE16A884207D24FF0B1
:10171000805009490860BFF34F8FBFF36F8F10BD32
:1017200060000020500000206C0000207C000020A1
:10173000680000206C28002004ED00E008B500F0EF
:10174000C5FC0E480068A8B90D4800F094FC0D488F
:1017500000F091FC0A480C4908600A480B490860EF
:1017600000200B4B0B4A10210090052000F02DFFAC
:101770000249086000F0BCFC08BD00009800002091
:10178000302D0020442D00209000002094000020E7
:10179000582D0020A82D002010B516E000F096FC72
:1017A0000C48C068C468201D00F038FC0A48006876
:1017B000401E0949086009480068401E0749086042
:1017C00000F096FC204600F05FF80448006800280E
:1017D000E4D110BD082D0020600000205C00002036
:1017E00070B504460D46206C70B1216CE068014470
:1017F000E160D4E90210884201D32168E160284603
:10180000226CE168FEF7B8FD70BD2DE9F041044699
:101810000F4615464FF00008A66B206C48B92068AB
:1018200000282CD1A06801F055FA80460020A06065
:1018300025E07DB93946226C6068FEF79DFD216C7C
:10184000606808446060D4E90101884217D32068C9
:10185000606014E03946226CE068FEF78DFD216C73
:10186000E068411AE1602168E068884203D2216C97
:10187000A068411AE160022D01D106B1761E701CEC
:10188000A0634046BDE8F08110B5044694F85900C5
:1018900030B9206B00F03CFC204600F039FC06E03B
:1018A00094F85900012802D1204600F031FC10BD07
:1018B00001464A6A22B10A6B1268C2F1380000E0A0
:1018C000002070470146084A126812680AB90122CE
:1018D00000E000220A600A6822B9034A1268D2684E
:1018E000106800E0002070479000002030B54FF4F1
:1018F0000053154800F007042CB1C01D20F007006C
:10190000114C041B1B1B0246104C226000240F4D7F
:101910006C60D018083820F007000D4C20600024BF
:101920000B4D2D686C600A4D2D682C601146441AD1
:101930004C60074C24680C60064D4C682C60064DCA
:101940004C682C6030BD00006C0800203000002086
:1019500038000020400000203C00002000BFFFF7BE
:101960001BFF064800680128F9D94FF08050044950
:101970000860BFF34F8FBFF36F8FF0E76C28002034
:1019800004ED00E010B5044654B10020A0602060D2
:101990000021E16000231A461946204600F084FE2B
:1019A00010BD2DE9F04106460D4617469846069CA7
:1019B0000DB9246000E02760E6632564012120461C
:1019C00000F022FE84F84C80BDE8F0812DE9F05F44
:1019D00081460E4690469A460A9F0C9C4FEA880123
:1019E000A522206BFEF70DFDA8F10100216B01EB94
:1019F000800B2BF0070B7EB1002507E0715D04F131
:101A000034004155705D00B902E06D1C102DF5D316
:101A100000BF002143200155382F00D33727E7624C
:101A2000E764201D00F034FB04F1180000F030FBE7
:101A30002461C7F13800A0616462524649465846A5
:101A400000F0DAFA20600B9808B10B980460BDE84A
:101A5000F09F000010B5002407E004EB84010F4A5A
:101A600002EB810000F007FB641C382CF5D30C4816
:101A700000F001FB0B4800F0FEFA0B4800F0FBFA07
:101A80000A4800F0F8FA0A4800F0F5FA0448094953
:101A9000086004480849086010BD00006C28002058
:101AA000CC2C0020E02C0020F42C0020082D00205D
:101AB0001C2D0020540000205800002010B50146C5
:101AC000164800E0006803688B42FBD30246436877
:101AD00013448B4204D143684C682344436001465D
:101AE0000A464B6813440468A34211D10C4C0368A6
:101AF0002468A34208D04B680468646823444B60A0
:101B000003681B680B6005E0054B1B680B6001E078
:101B100003680B60884200D0016010BD30000020D7
:101B2000380000202DE9F04104460D4616461F46B8
:101B30004FF0000865602461B5420CD8F01BA16924
:101B4000884202D34FF0010811E0211D09480068C6
:101B500000F0A1FA0BE0BE4204D2BD4202D34FF026
:101B6000010804E0211D0448006800F094FA404692
:101B7000BDE8F081940000209000002070B505467B
:101B800000F0A4FAA86B08B9012400E0002400F0DA
:101B9000AFFA204670BD70B5054600F097FAA86B05
:101BA000E96B884201D1012400E0002400F0A0FA92
:101BB000204670BD70B505460E460E480068C068E8
:101BC000C468201D00F02AFA94F8280000F00400F0
:101BD00028B132462946204600F0D0F805E094F8B6
:101BE000280000F0FE0084F828002046216A88477B
:101BF00070BD00009000002070B586B077E00298BC
:101C0000002805DA03AED6E90020B168904700BF8E
:101C1000029800286BDB049C606908B9012000E091
:101C2000002010B9201D00F0F9F901A800F0D2F849
:101C3000054602980A2858D2DFE800F05705072E1B
:101C4000364706082F3700BF00BF00BF94F82800B2
:101C500040F0010084F828000398A2698118034627
:101C60002A462046FFF75EFFA8B194F8280000F04E
:101C7000040038B10398A26981182A46204600F072
:101C80007DF805E094F8280000F0FE0084F82800B4
:101C90002046216A884729E000BF94F8280000F018
:101CA000FE0084F8280021E000BF94F8280040F0EE
:101CB000010084F828000398A061A06941192B460F
:101CC0002A462046FFF72EFF10E094F8280000F087
:101CD000020018B9204600F01BFA05E094F828002D
:101CE00000F0FE0084F8280000E000BF00BF0022E2
:101CF00002A90448006800F063FD00287FF47FAF6C
:101D000006B070BD98000020F8B505460C4600F0FE
:101D100079FB684600F05EF80646009820BB44B99F
:101D2000B54206D801F010F931462846FFF742FFC8
:101D30001CE03CB10E480068006808B9012000E0D2
:101D400000200446A91B22460A48006800F024FA35
:101D500001F0FAF850B94FF0805007490860BFF31E
:101D60004F8FBFF36F8F01E001F0EEF8F8BD000078
:101D7000940000209800002004ED00E070B50446B7
:101D80000D46164604E0A06905442046216A8847AE
:101D9000A06941192B4632462046FFF7C3FE0028B2
:101DA000F1D170BD09480068006808B9012000E061
:101DB000002020B14FF0FF300549086005E00348DE
:101DC0000068C0680068024908607047540000203D
:101DD0008000002070B5044600F0AEFE05460748BE
:101DE0000068854204D200F00BF80120206001E079
:101DF0000020206001480560284670BDA00000203A
:101E000070B508E00D480068C06804684FF0FF3105
:101E10002046FFF7CFFE09480068006808B9012096
:101E200000E000200028EDD0044805680448006860
:101E3000024908600248056070BD00009000002063
:101E40009400002000BF102080F31188BFF34F8F53
:101E5000BFF36F8F00BF00BFFEE708B500BF684645
:101E6000FFF730FD044620460099FFF74DFFFFF7CE
:101E7000C3FEF4E770B5044600F028F994F9455024
:101E800010E0606A08B9012000E0002038B904F1D0
:101E9000240000F0D5FF18B100F0CAF900E003E01B
:101EA000681E45B2002DECDC00BFFF2084F8450021
:101EB00000F01EF900F00AF994F9445010E020698E
:101EC00008B9012000E0002048B904F1100000F03A
:101ED000B7FF08B100F0ACF9681E45B200E001E0C0
:101EE000002DECDC00BFFF2084F8440000F000F976
:101EF00070BD00002DE9F04705464FF0000900F0E5
:101F000081FA3048006808B9FFF7F0FC75B105F0B8
:101F10000700C0F11008C8F1FF30A84201D201202B
:101F200000E0002008B9454400E00025012000EB56
:101F3000E570002841D0002D3FD02348006885423D
:101F40003BD8224E3046046801E02646246860688B
:101F5000A84202D220680028F7D11A4800688442BB
:101F60002BD0306800F10809206830606068401BA1
:101F7000102807D967196068401B7860656038468B
:101F8000FFF79CFD104960680968081A0E4908604F
:101F9000084600680E490968884203D20A4800686A
:101FA0000B490860606840F00040606000202060DD
:101FB00008480068401C0749086000F0C5FF484613
:101FC000BDE8F087380000203C00002030000020F1
:101FD00040000020440000200648006830B1054958
:101FE000096801F15000096D491C01600148006851
:101FF0007047000050000020001F4FF08073036006
:10200000001F21F001030360001F034B036014381D
:102010000260203870470000451E000801460A692A
:10202000D1E901309860D1E90103586050688842D5
:1020300001D188685060002008611068401E10605F
:1020400010687047034B0360034B0B6080231360E1
:102050007047000074040020D0040020034B03608C
:10206000034B0B605023136070470000D006002024
:102070002C070020704700F1080141604FF0FF314C
:10208000816000F10801C1600161002101607047B9
:1020900000210161704710B502460B685C1C0CB949
:1020A000106907E002F1080000E040684468246815
:1020B0009C42FAD944684C604C68A16088604160D9
:1020C0000A611468641C146010BD000000BF102079
:1020D00080F31188BFF34F8FBFF36F8F00BF0348AA
:1020E0000068401C01490860704700004C00002057
:1020F00006480068401E054908600846006820B987
:10210000002080F3118800BF00BF70474C00002002
:1021100070B506463546E6B1083D2C466068C00FEE
:10212000B8B12068A8B9606820F00040606000F095
:1021300069F908496068096808440649086020464A
:10214000FFF7BCFC04480068401C0349086000F02D
:10215000FBFE70BD3C0000204800002000204FF036
:10216000E02108618861064800684FF47A71B0FB8D
:10217000F1F0401E4FF0E0214861072008617047F0
:102180001C00002070B50446254695F8460010B99D
:102190002846FFF7BDFF70BD2DE9F04105460E460C
:1021A00017462C46FFF792FF94F94400401C10B9E3
:1021B000002084F8440094F94500401C10B9002028
:1021C00084F84500FFF794FFA06B28B93A463146E2
:1021D00004F1240000F042F82046FFF74BFEBDE872
:1021E000F081000070B50446002544B100F00AF902
:1021F00000212046FFF7DCF900F0A6FE05463DB9B8
:102200004FF0805003490860BFF34F8FBFF36F8FCB
:1022100070BD000004ED00E0034909680160034956
:1022200009684160704700007800002064000020C9
:1022300001200149086070477400002070B5054610
:102240000C460548016818312846FFF724FF012194
:102250002046FFF7ADF970BD5000002070B5044670
:102260000E46154660680F490968C8610D498268C5
:1022700009680A620B490968183182685160094986
:10228000096818318160074909688C622168491C16
:1022900021600DB14FF0FF3629463046FFF788F92F
:1022A00070BD0000500000202DE9F04706460F46A3
:1022B00034464FF00109002E4FD0E06CB84201D2F5
:1022C0003D4600E0E56CE06AA84246D0206D01285A
:1022D00043D1D4F82C80E562A06900F0004010B929
:1022E000C5F13800A06108EB88011D4A02EB8101AD
:1022F0006069884201D1012000E0002068B3201D00
:10230000FFF78CFE1749E06A0968884202D915492F
:10231000E06A0860E16A01EB8101114A02EB810188
:102320004868A0608268E260211D82685160816017
:10233000E16A01EB81010A4A02EB81026261E16A12
:1023400001EB8101064A52F82110491CE26A02EBB6
:102350008202034B43F8221000BFBDE8F087000063
:102360006C2800206800002010B586B00020059081
:10237000049003AA04A905A8FFF764FE0022DDE982
:1023800004101346CDE90021029016A11748039AC4
:1023900000F096FB164908600846006808B1012461
:1023A00000E00024012C02D100F07AFE0446012C4A
:1023B00014D100BF102080F31188BFF34F8FBFF3FB
:1023C0006F8F00BF4FF0FF300A49086001200A49B3
:1023D000086000200949086000F074F808480068A7
:1023E00006B010BD49444C45000000005D190008CE
:1023F00084000020800000206C0000206400002089
:102400008800002002480068401C014908607047AD
:102410008C00002070B52648006818B101202549BD
:10242000086043E000202349086023480068046BEB
:102430004FF0A5352068B0F1A53F0BD16068B0F131
:10244000A53F07D1A068B0F1A53F03D1E068B0F186
:10245000A53F05D01848016834310068FFF70AFE2F
:102460001648016800E0491E01EB8100144A52F849
:10247000200008B9012000E000200028F3D101EB82
:1024800081020F4B03EB820042685268426000F108
:1024900008024368934202D142685268426042682F
:1024A000D268054B1A600548016000BF70BD00008E
:1024B0008C000020740000205000002068000020E4
:1024C0006C28002010B50A48006840F47F000849D5
:1024D00008600846006840F07F400860FFF73EFE55
:1024E000002004490860FDF769FE002010BD0000CF
:1024F00020ED00E04C00002010B500BF102080F35C
:102500001188BFF34F8FBFF36F8F00BF00F01AFB2E
:1025100018B14FF080500449086000BF002080F3DC
:10252000118800BF10BD000004ED00E02DE9F0416E
:1025300004460126002722460021012000F01CF855
:1025400005462846FFF71EFA2846BDE8F0812DE92A
:10255000F84304460D4601274FF000082B460022A1
:1025600011460120009400F030F806463046FFF78F
:1025700009FA3046BDE8F8832DE9F84305460E46D2
:1025800017460024F5B1601EB0FBF5F0B04219D338
:1025900005FB06F010F1510F14D805FB06F909F1FF
:1025A0005000FFF7A7FC044664B1A04608F15008AC
:1025B000002084F846003B464246314628460094B7
:1025C000FFF7EFF92046BDE8F8832DE9F843804690
:1025D0000D4616461C46DDF820900027B8F1000F86
:1025E0000FD074B106B165B106B955B927460120BF
:1025F00087F846004B463246294640460097FFF78B
:10260000D0F93846BDE8F8832DE9F04105460E467D
:1026100001272C46002C41D0E06B00283ED0B91E8B
:10262000E06BB1FBF0F0216C884237D3FFF74EFD31
:10263000D4E90F12206801FB0200A0600020A06313
:1026400020686060E06B401E226C216800FB021174
:10265000E160FF2084F8440084F845009EB92069B9
:1026600008B9012000E00020A8B904F1100000F032
:10267000E7FB80B14FF080500A490860BFF34F8FED
:10268000BFF36F8F07E004F11000FFF7F4FC04F1D3
:102690002400FFF7F0FCFFF72BFD00E00027384691
:1026A000BDE8F08104ED00E02DE9FF4383B007466B
:1026B00088461D464FF000093C4600BFFFF706FD67
:1026C000A06BE16B884201D3022D28D12A464146F6
:1026D0002046FFF79AF80646606A08B9012000E034
:1026E000002068B904F1240000F0AAFB88B14FF083
:1026F000805032490860BFF34F8FBFF36F8F08E0FF
:102700003EB14FF080502D490860BFF34F8FBFF3AB
:102710006F8FFFF7EDFC012007B0BDE8F08305984F
:1027200018B9FFF7E5FC0020F6E7B9F1000F04D176
:1027300001A8FFF771FD4FF00109FFF7D9FCFFF782
:1027400061FEFFF7C3FC94F94400401C10B900205F
:1027500084F8440094F94500401C10B9002084F826
:102760004500FFF7C5FC05A901A800F043F9F0B941
:102770002046FFF710FAA0B104F110000599FFF709
:102780005DFD2046FFF776FB00F0DEFB002895D1CB
:102790004FF0805009490860BFF34F8FBFF36F8F30
:1027A0008CE72046FFF766FB00F0CEFB86E720466D
:1027B000FFF760FB00F0C8FB0020ADE704ED00E090
:1027C0002DE9F74183B005460F464FF000082C462F
:1027D00000BFFFF77BFCA66BF6B139462046FEF73B
:1027E000FFFF701EA063206908B9012000E00020EF
:1027F00060B904F1100000F023FB38B14FF08050B5
:102800002F490860BFF34F8FBFF36F8FFFF770FC46
:10281000012006B0BDE8F081059818B9FFF768FC03
:102820000020F6E7B8F1000F04D101A8FFF7F4FC8F
:102830004FF00108FFF75CFCFFF7E4FDFFF746FCF3
:1028400094F94400401C10B9002084F8440094F925
:102850004500401C10B9002084F84500FFF748FCF3
:1028600005A901A800F0C6F8F0B92046FFF786F9DF
:10287000A0B104F124000599FFF7E0FC2046FFF722
:10288000F9FA00F061FB0028A3D14FF080500C4909
:102890000860BFF34F8FBFF36F8F9AE72046FFF7B3
:1028A000E9FA00F051FB94E72046FFF7E3FA00F065
:1028B0004BFB2046FFF762F900288AD00020A8E7EA
:1028C00004ED00E02DE9F34182B0054600272C46D7
:1028D000B84600BFFFF7FAFBA66BFEB1701EA063FF
:1028E000206810B9FFF778FBA060206908B90120C3
:1028F00000E0002060B904F1100000F0A1FA38B146
:102900004FF080503A490860BFF34F8FBFF36F8F8D
:10291000FFF7EEFB012004B0BDE8F081039818B981
:10292000FFF7E6FB0020F6E71FB96846FFF774FCE7
:102930000127FFF7DDFBFFF765FDFFF7C7FB94F904
:102940004400401C10B9002084F8440094F945006C
:10295000401C10B9002084F84500FFF7C9FB03A90B
:10296000684600F047F840BB2046FFF707F9F0B192
:10297000206838B9FFF7AAFBA06800F0F5F9804697
:10298000FFF7B6FB04F124000399FFF757FC20463C
:10299000FFF770FA00F0D8FA00289BD14FF0805072
:1029A00013490860BFF34F8FBFF36F8F92E7204644
:1029B000FFF760FA00F0C8FA8CE72046FFF75AFAF2
:1029C00000F0C2FA2046FFF7D9F8002882D0B8F10B
:1029D000000F0BD0FFF77AFB2046FEF769FF064693
:1029E0003146A068FFF760FCFFF782FB002092E70A
:1029F00004ED00E070B506460C46FFF767FB134890
:102A000002687068131A2068401C08B9002519E094
:102A10000F4930680968884206D07068904203D830
:102A20000125002020600DE02068984207D9206829
:102A3000C01A20603046FFF7EFFB002502E00020BF
:102A400020600125FFF754FB284670BD640000207C
:102A5000780000202DE9FF4F85B080468946174653
:102A6000DDE912ABB800FFF745FA064676B15C2007
:102A7000FFF740FA04462CB15C212046FDF7EBFC41
:102A8000266304E03046FFF743FB00E000248CB1EE
:102A9000002084F85900CDE900ABCDE902403A4668
:102AA00049464046089BFEF791FF2046FEF7D2FDBF
:102AB000012501E04FF0FF35284609B0BDE8F08F51
:102AC0002DE9F04F85B00746884691469A46DDE9E4
:102AD0000EB6109CCCB1C6B125465C212846FDF748
:102AE000BAFC2E63022085F85900002004A9534641
:102AF0004A46CDE900B1CDE9025041463846FEF7DD
:102B000065FF2846FEF7A6FD01E00020049004982A
:102B100005B0BDE8F08F00000549096809B901203A
:102B200005E00449096809B9022000E00020704767
:102B30006C0000208C0000200149086870470000EC
:102B4000640000202DE9F041002757480068002864
:102B50007DD156480068451C544805608DB95448DD
:102B6000D0F8008053480068514908605148C0F8C7
:102B7000008051480068401C4F490860FFF712F977
:102B800000BF4E480068854275D300BF48480068C2
:102B9000006808B9012000E0002020B14FF0FF30AC
:102BA0004649086066E042480068C068C4686668D4
:102BB000B54202D2414806605CE06069D4E9021285
:102BC0008A60D4E902214A60211D42688A4201D10B
:102BD000E1684160002262610168491E0160A06AEB
:102BE00098B1A06AD4E907128A60D4E907214A6043
:102BF00004F1180142688A4201D1216A4160002231
:102C0000A2620168491E016000BF2D49E06A09689F
:102C1000884202D92A49E06A0860E16A01EB810131
:102C2000284A02EB81014868A0608268E260211DA9
:102C3000826851608160E16A01EB8101214A02EB07
:102C400081026261E16A01EB81011E4A00E022E03B
:102C500052F82110491CE26A02EB8202194B43F838
:102C600022101949E06A0968C96A88428ED9012789
:102C70008CE700E000BF14480068C06A00EB8000E9
:102C8000104951F82000012800D901270F48006899
:102C900000B1012704E00E480068401C0C490860A0
:102CA0003846BDE8F08100008C0000206400002060
:102CB00054000020580000207800002080000020F0
:102CC000680000206C2800205000002074000020C4
:102CD0007000002070B505462C460026002D3CD023
:102CE000206D401E2065E16CE06A884235D0206D81
:102CF00098BB201DFFF792F9E06CE062E06AC0F13A
:102D00003800A0611649E06A0968884202D914496E
:102D1000E06A0860E16A01EB8101124A02EB81017D
:102D20004868A0608268E260211D8268516081600D
:102D3000E16A01EB81010B4A02EB81026261E16A07
:102D400001EB8101074A52F82110491CE26A02EBAB
:102D50008202044B43F822100126304670BD000069
:102D6000680000206C28002070B505462C4600261F
:102D7000002D5CD02F49E06A0968C96A88424FD2A9
:102D8000A06900F0004028B92A480068C06AC0F174
:102D90003800A061E16A01EB8101274A02EB810161
:102DA0006069884201D1012000E0002088B3201D25
:102DB000FFF734F91F480068C06AE0621F49E06A03
:102DC0000968884202D91D49E06A0860E16A01EB9E
:102DD0008101194A02EB81014868A0608268E260C3
:102DE000211D826851608160E16A01EB8101124A14
:102DF00002EB81026261E16A01EB81010E4A52F845
:102E00002110491CE26A02EB82020B4B43F82210AC
:102E100004E0FFE707480068C06AE062012606E0B8
:102E20000449E06C0968C96A884200D2012630462C
:102E300070BD0000500000206C28002068000020B9
:102E400070B50346D868C168886AD1E90745A560AE
:102E5000D1E90754656001F118044568A54201D124
:102E60000C6A446000258D620468641E046030486A
:102E7000006800283CD14869D1E90245A560D1E944
:102E8000025465600C1D4568A54201D1CC684460C0
:102E900000254D610468641E0460264CC86A2468DD
:102EA000A04202D9234CC86A2060CC6A04EB840497
:102EB000214D05EB8404606888608568CD600C1D39
:102EC00085686C608460CC6A04EB84041A4D05EB61
:102ED00084054D61CC6A04EB8404174D55F82440F9
:102EE000641CCD6A05EB8505134E46F8254010E0BD
:102EF000124C6068C86185680D6201F1180485682C
:102F00006C6084600D4D8D622C462468641C2C60BE
:102F100000BF0B4CC86A2468E46AA04204D90122AD
:102F20000120084C206000E00022104670BD000027
:102F30008C000020680000206C280020F42C002069
:102F4000500000207400002070B500240026FFF718
:102F5000BDF84A480068401E4849086008460068B5
:102F600000287DD146480068002879D05AE04548BD
:102F7000C068C468A06AD4E907128A60D4E907214E
:102F80004A6004F1180142688A4201D1216A416015
:102F90000022A2620168491E01606069D4E9021240
:102FA0008A60D4E902214A60211D42688A4201D127
:102FB000E1684160002262610168491E0160324996
:102FC000E06A0968884202D92F49E06A0860E16A2C
:102FD00001EB81012D4A02EB81014868A060826803
:102FE000E260211D826851608160E16A01EB81012C
:102FF000264A02EB81026261E16A01EB8101234A08
:1030000052F82110491CE26A02EB82021F4B43F87E
:1030100022101F49E06A0968C96A884202D3012068
:103020001C4908601748006808B9012000E000202A
:1030300000289CD00CB1FEF7B5FE1748056865B1B5
:1030400000BFFFF77FFD10B10120124908606D1E1F
:10305000002DF6D10020104908600E48006800E0FD
:1030600008E038B1012630070C490860BFF34F8FE4
:10307000BFF36F8FFFF73CF8304670BD8C00002027
:1030800060000020F42C0020680000206C28002044
:1030900050000020740000207000002004ED00E0CB
:1030A00010B586B00024FEF749FB10480068D0B187
:1030B00000200590049003AA04A905A8FEF7CEFFFE
:1030C0002822DDE904100023CDE90021029008A1A7
:1030D0000948039AFFF7F4FC0849086008460068AD
:1030E00000B1012400BF204606B010BD98000020AA
:1030F000546D7220537663005B1E00089C00002014
:103100002031000800000020A40000002801000871
:10311000C4310008A4000020B433000044010008BA
:10312000000000000000000000000000000000009F
:1031300000000000000000000000000000A24A049F
:103140000000000000000000010203040607080957
:10315000000000000000000000000000000000006F
:10316000000000000000000000000000AAAAAAAAB7
:10317000000000000000000000000000000000004F
:10318000000000000000000000000000000000003F
:10319000000000000000000000000000000000002F
:1031A00000000000000000003700000000000000E8
:1031B000000000000000000000000000000000000F
:0431C000000000000B
:0400000508000231BC
:00000001FF
